:100000000C9461000C9489000C9489000C94890074
:100010000C9489000C9489000C9489000C9489003C
:100020000C9489000C9489000C9489000C9489002C
:100030000C9489000C9489000C9489000C9489001C
:100040000C9485050C9489000C948D070C94D007B2
:100050000C9489000C9489000C9489000C948900FC
:100060000C9489000C94890000010203040500002F
:100070000007000201000003040600000000000069
:100080000000010204081020408001020408102032
:1000900001020408102004040404040404040202FD
:1000A0000202020203030303030300000000250011
:1000B00028002B0000000000240027002A00620511
:1000C0008C0811241FBECFEFD8E0DEBFCDBF11E0FA
:1000D000A0E0B1E0ECE8F4E102C005900D92A23797
:1000E000B107D9F712E0A2E7B1E001C01D92A43830
:1000F000B107E1F710E0C2ECD0E004C02297FE01A6
:100100000E94CC09CE3BD107C9F70E9471090C941B
:10011000440A0C940000CF93CFB7F89480917501F6
:10012000811127C0E0EAF0E08491ECE8F0E09491DE
:10013000E82FF0E0EE0FFF1FEC54FF4FA591B491B4
:100140008C91892321F461E08AE00E94BF0661E07E
:100150008AE00E9486068CB580618CBD8CB5806477
:100160008CBD61E08DE00E94860661E08BE00E941C
:100170008606809175018F5F80937501CFBFCF9107
:1001800008958EBD00000DB407FEFDCF8EB5089515
:10019000CF93DF93EC018B810E94BF068A8D9B8DEC
:1001A000DF91CF910C941806FC0182819381891311
:1001B0000C94BF0608950F931F93FC0104811581D1
:1001C00026813781E0E040E052E16AE770E0041701
:1001D00015072607370740F4769567955795479595
:1001E000EF5FE630A1F7E7E041E04E27242F30E053
:1001F0003595279523702065417030917401332324
:1002000099F05FB7F89430917401313059F43DB3EF
:10021000309372016DB330917301309536233DBB3D
:100220005FBF02C0509372012CBD4DBD60E01F91B5
:100230000F910C94C80061E00E94C8008091740185
:10024000882361F09FB7F894209174018091720126
:10025000213019F48DBB9FBF08958FBF0895CF92B1
:10026000DF92FF920F931F93CF93DF9300D01F92E3
:10027000CDB7DEB78C01F22E4A835B8369830E947F
:10028000DB006981862F0E94C100F80180874A81C6
:10029000C42E5B81D52EF40EFC1439F08FEF0E9432
:1002A000C100F60181936F01F7CFC8010F900F9045
:1002B0000F90DF91CF911F910F91FF90DF90CF9022
:1002C0000C941B01EF92FF921F93CF93DF931F9229
:1002D000CDB7DEB77C0169830E94DB006981862F80
:1002E0000E94C100F70180878FEF0E94C100182F84
:1002F000C7010E941B01812F0F90DF91CF911F91A9
:10030000FF90EF900895CF92DF92FF920F931F938B
:10031000CF93DF9300D01F92CDB7DEB78C01F22EC2
:100320004A835B8369830E94DB006981862F806238
:100330000E94C100F80180874A81C42E5B81D52EBE
:10034000F40EFC1431F0F60181916F010E94C1009E
:10035000F8CFC8010F900F900F90DF91CF911F91B0
:100360000F91FF90DF90CF900C941B010F931F9380
:10037000CF93DF9300D0CDB7DEB78C014A8369837A
:100380000E94DB006981862F80620E94C100F80113
:1003900080874A81842F0E94C100C8010F900F906E
:1003A000DF91CF911F910F910C941B01CF93DF939D
:1003B000EC0120E040E050E062EE0E942F018885D1
:1003C000DF91CF910895CF93DF93EC0120E040E0DF
:1003D00050E061EE0E942F018885DF91CF91089552
:1003E000FC0186E791E091838083128644815581E8
:1003F00066817781493B58486105710540F440E8C2
:1004000056E968E970E044835583668377830895ED
:100410000F931F93FC016283438304831583268318
:10042000378380E28187108A118A85E0838B81E09F
:10043000848B158A45E050E060E070E0428F538F76
:10044000648F758FCF011F910F910C94F001462F8F
:100450006E3708F04DE765E00C94B6011F93CF931B
:10046000DF93EC01662321F0613218F060E201C0F5
:1004700061E0698711E14985612FCE010E94B601D3
:100480001F5F1731C1F7DF91CF911F910895FC01D4
:1004900082818F3F21F081E093819F3F09F480E0CA
:1004A00008951F93CF93DF93EC010E944702182F0A
:1004B000882399F08A819B81891739F061E00E9435
:1004C000860661E08B810E94860660E0CE010E9474
:1004D000D40061E0CE010E94C800812FDF91CF914E
:1004E0001F910895CF93DF93EC0160E00E94D40048
:1004F0008E899F890E9418068A89882319F0CE0167
:100500000E94E3014F854E7F4F8760E0CE010E943D
:10051000B60162E0CE010E946201E8E6F0E0E491FB
:1005200041E050E001C0440FEA95EAF7482B62E051
:10053000CE01DF91CF910C94B601FC01478541FDBE
:1005400009C04260478760E00E94B60188E893E1F5
:100550000C9418060895CF93DF93EC0160E00E949D
:10056000D40040E167E0CE010E94B60120E040E007
:1005700050E063EECE010E942F0161E0CE01DF91D9
:10058000CF910C94D4001F93CF93DF93EC01625072
:1005900049F0162F1370412F63E00E94B6011E5FD1
:1005A0001B8B06C040E063E00E94B60182E08B8BAB
:1005B000DF91CF911F910895CF93DF93EC010E94BB
:1005C000DB0080E50E94C100888783E70E94C100AC
:1005D000CE01DF91CF910C941B01CF93DF93EC01FF
:1005E0008A89882359F06DE1CE010E946201482F6B
:1005F0004D7F6DE1CE010E94B6011A8ADF91CF9145
:100600000895CF93DF93EC01662331F04FE361E06F
:10061000DF91CF910C94B60140E061E00E94B601F9
:100620008A89882329F0CE01DF91CF910C94ED02C5
:10063000DF91CF910895EF92FF921F93CF93DF93B5
:100640001F92CDB7DEB77C01162F66E049830E946A
:100650006201887F612F4981143008F063E0660FE2
:10066000640F682B462F66E0C7010F90DF91CF9192
:100670001F91FF90EF900C94B6010F931F93CF93AF
:10068000DF93EC018B0166E00E946201877D0230FE
:10069000110551F40BE910E020E030E00E8B1F8BC8
:1006A000288F398F90E216C00130110551F005E511
:1006B00010E020E030E00E8B1F8B288F398F90E008
:1006C00009C001E410E020E030E00E8B1F8B288F82
:1006D000398F98E0192F182B412F66E0CE010E9428
:1006E000B60166E0CE010E94620191E0811390E0C4
:1006F000892FDF91CF911F910F9108951F93CF9371
:10070000DF93EC0165E070E080E090E00E94F2058C
:100710004FE564E0CE010E94B60160E070E0CE01DA
:100720000E943D036DE1CE010E946201182FCE01AF
:100730000E94DC026DE1CE010E94620191E018137B
:1007400090E0988B882351F0992319F0CE010E94F4
:10075000DC0240E06DE1CE010E94B6011A8A40E061
:100760006CE1CE010E94B6011C8A4FE361E0CE012C
:100770000E94B60143E062E0CE010E94B60160E251
:10078000CE010E942E0265E0CE010E94C3026CE4FD
:10079000CE010E94270240E767E0CE010E94B60129
:1007A000CE010E94D601CE010E94E3014CE060E040
:1007B000CE010E94B60160E0CE010E9462018F87E7
:1007C000CE010E949D0281E09F859E3009F080E06D
:1007D000DF91CF911F910895CF93DF93EC010E9499
:1007E0008B00CE010E945102882329F0CE01DF91B7
:1007F000CF910C947E0380E0DF91CF910895FC01AE
:100800008785837F6115710531F06130710511F4C1
:10081000886001C08C608787478560E0CF010C94B9
:10082000B601FC014785477F478760E00C94B6011D
:10083000603118F46295607F01C060EF403108F0CC
:100840004FE0462B64E00C94B601CF92DF92EF921A
:10085000FF920F931F93CF93DF93CDB7DEB7A0978F
:100860000FB6F894DEBF0FBECDBF8C01C62ED42EBE
:100870000E94720266E0C8010E946201482F40692E
:1008800066E0C8010E94B601F8018089882329F139
:1008900060E0C8010E94010340E064E0C8010E94DA
:1008A000B601FE013196CE0181967F012FEF219393
:1008B000E817F907E1F725E0A70160E1C8010E9408
:1008C0008301C8010E94E30120E2A70160EAC80198
:1008D0000E948301C8010E94110441E06C2DC801EF
:1008E0000E941B036D2DC8010E94270261E0C80110
:1008F0000E94D400F8018089882349F061E070E00B
:1009000080E090E00E94F205C8010E94AB02A09630
:100910000FB6F894DEBF0FBECDBFDF91CF911F9110
:100920000F91FF90EF90DF90CF90089583EB91E0CF
:100930000E94EC03882349F160E083EB91E00E9480
:10094000010383EB91E00E94720240E060E083EBE0
:1009500091E00E94180441E063E083EB91E00E9483
:100960001B0361E070E083EB91E00E943D0360E0D7
:1009700070E083EB91E00E94FF034DE263E070E0E2
:1009800083EB91E00E94250406C064E071E08AEDEB
:1009900091E00E943B0985E991E00E94EC038823E5
:1009A00049F160E085E991E00E94010385E991E069
:1009B0000E94720240E060E085E991E00E94180424
:1009C00041E063E085E991E00E941B0361E070E093
:1009D00085E991E00E943D0360E070E085E991E0E7
:1009E0000E94FF034DE263E070E085E991E00E9420
:1009F000250406C06AE171E08AED91E00E943B099E
:100A000087E791E00E94EC03882341F160E087E7EB
:100A100091E00E94010387E791E00E94720240E0AA
:100A200060E087E791E00E94180441E063E087E717
:100A300091E00E941B0361E070E087E791E00E9473
:100A40003D0360E070E087E791E00E94FF034DE224
:100A500063E070E087E791E00C94250460E371E0C7
:100A60008AED91E00C943B0940E052EC61E070E0CB
:100A70008AED91E00E940B0866E471E08AED91E056
:100A80000E943B090C94960461E570E080E090E0E0
:100A90000E944D0983EB91E00E94270261E570E01E
:100AA00080E090E00E944D0985E991E00E942702D4
:100AB00061E570E080E090E00E944D0987E791E0F9
:100AC0000C9427020F931F9300E014E224EF30E010
:100AD0004BE16CE183EB91E00E94080200E014E23C
:100AE00024EF30E049E16AE185E991E00E940802E3
:100AF00000E014E224EF30E047E168E187E791E0AD
:100B00000E9408021F910F9108951F920F920FB635
:100B10000F9211242F933F938F939F93AF93BF9383
:100B20008091D2019091D301A091D401B091D501CF
:100B30003091D10123E0230F2D3720F40196A11D20
:100B4000B11D05C026E8230F0296A11DB11D2093FB
:100B5000D1018093D2019093D301A093D401B0939B
:100B6000D5018091D6019091D701A091D801B09183
:100B7000D9010196A11DB11D8093D6019093D70193
:100B8000A093D801B093D901BF91AF919F918F915C
:100B90003F912F910F900FBE0F901F9018953FB768
:100BA000F8948091D6019091D701A091D801B0918D
:100BB000D90126B5A89B05C02F3F19F00196A11DAC
:100BC000B11D3FBF6627782F892F9A2F620F711DA5
:100BD000811D911D42E0660F771F881F991F4A955E
:100BE000D1F70895CF92DF92EF92FF92CF93DF93E8
:100BF0006B017C010E94CF05EB01C114D104E1041B
:100C0000F10479F00E94CF056C1B7D0B683E7340A8
:100C1000A0F381E0C81AD108E108F108C851DC4FFF
:100C2000ECCFDF91CF91FF90EF90DF90CF900895C0
:100C3000019739F0880F991F880F991F0297019724
:100C4000F1F70895789484B5826084BD84B581609D
:100C500084BD85B5826085BD85B5816085BDEEE6C4
:100C6000F0E0808181608083E1E8F0E010828081A3
:100C700082608083808181608083E0E8F0E0808111
:100C800081608083E1EBF0E0808184608083E0EB31
:100C9000F0E0808181608083EAE7F0E08081846019
:100CA0008083808182608083808181608083808175
:100CB000806880831092C1000895833081F028F409
:100CC000813099F08230A1F008958630A9F0873004
:100CD000B9F08430D1F4809180008F7D03C0809181
:100CE00080008F7780938000089584B58F7702C04D
:100CF00084B58F7D84BD08958091B0008F7703C047
:100D00008091B0008F7D8093B0000895CF93DF93E2
:100D100090E0FC01EE57FF4F2491FC01EA56FF4F93
:100D20008491882349F190E0880F991FFC01EC54CD
:100D3000FF4FA591B49186559F4FFC01C591D49169
:100D40009FB7611108C0F8948C91209582238C93F1
:100D5000888182230AC0623051F4F8948C91322F3A
:100D6000309583238C938881822B888304C0F894E8
:100D70008C91822B8C939FBFDF91CF9108950F931D
:100D80001F93CF93DF931F92CDB7DEB7282F30E0AC
:100D9000F901E259FF4F8491F901EE57FF4F149189
:100DA000F901EA56FF4F04910023C9F0882321F08E
:100DB00069830E945D066981E02FF0E0EE0FFF1F5E
:100DC000E655FF4FA591B4919FB7F8948C916111AE
:100DD00003C01095812301C0812B8C939FBF0F907E
:100DE000DF91CF911F910F910895FC0124853585E6
:100DF000F901E05CFF4F80819181F901EE5BFF4FCB
:100E000020813181821B930B8F7399270895FC01F8
:100E100084859585FC01E05CFF4F40815181FC0198
:100E2000EE5BFF4F208131814217530741F0019063
:100E3000F081E02DE80FF91F808190E008958FEF99
:100E40009FEF0895FC0184859585FC01E05CFF4FD0
:100E500040815181FC01EE5BFF4F208131814217BF
:100E6000530779F0A081B181A80FB91F8C9120811F
:100E700031812F5F3F4F2F7333273183208390E0E1
:100E800008958FEF9FEF0895FC0181A1882329F039
:100E9000A489B5898C9186FFFBCF11A20895CF93C9
:100EA000DF93FC0126853785D901A05CBF4F8D916A
:100EB0009C91119701968F739927E901CE5BDF4FC3
:100EC0004881598184179507D9F30D90BC91A02DC5
:100ED000A20FB31F6C93A685B785A05CBF4F119678
:100EE0009C938E93A689B7892C9181E090E0078C22
:100EF00002C0880F991F0A94E2F7282B2C9381E0F7
:100F000081A30488F589E02D80818064808381E05D
:100F100090E0DF91CF91089508951F920F920FB640
:100F20000F9211242F933F934F938F939F93EF939F
:100F3000FF938091C00082FD1CC04091C60080914B
:100F400080029091810201968F73992720918202ED
:100F5000309183028217930771F0E0918002F09143
:100F60008102E05CFD4F4083909381028093800278
:100F700002C08091C600FF91EF919F918F914F9198
:100F80003F912F910F900FBE0F901F9018958AEDF3
:100F900091E00E94F506892B11F00C948C070895BE
:100FA0001F920F920FB60F9211242F933F938F939E
:100FB0009F93EF93FF9320913C0230913D028091EB
:100FC0003E0290913F022817390731F48091C10009
:100FD0008F7D8093C10014C0E0913E02F0913F02EA
:100FE000E450FE4F208180913E0290913F02019695
:100FF0008F73992790933F0280933E022093C600FF
:10100000FF91EF919F918F913F912F910F900FBE84
:101010000F901F901895CF92DF92EF92FF92CF938F
:10102000DF93EC016A017B01411581EE58076105F0
:101030007105F9F0EC89FD8981E090E008A002C01B
:10104000880F991F0A94E2F7808360E079E08DE3CE
:1010500090E0A70196010E947E09215031094109C3
:1010600051095695479537952795211580E1380701
:1010700098F0EC89FD89108260E874E88EE190E0D8
:10108000A70196010E947E092150310941095109A9
:101090005695479537952795E889F9893083EA89E8
:1010A000FB89208319A2EE89FF89408181E090E0CD
:1010B0009C010C8C02C0220F331F0A94E2F7422BD2
:1010C0004083EE89FF8940819C010D8C02C0220F74
:1010D000331F0A94E2F7422B4083EE89FF89408157
:1010E0009C010E8C02C0220F331F0A94E2F7422BA0
:1010F0004083EE89FF8920810F8C02C0880F991FE1
:101100000A94E2F7809582238083DF91CF91FF904C
:10111000EF90DF90CF9008951092DD011092DC01E6
:1011200088EE93E0A0E0B0E08093DE019093DF01D1
:10113000A093E001B093E10185E691E09093DB019B
:101140008093DA0180E492E09093E7018093E601D6
:101150008CEF91E09093E9018093E80185EC90E0B9
:101160009093EB018093EA0184EC90E09093ED0181
:101170008093EC0180EC90E09093EF018093EE017E
:1011800081EC90E09093F1018093F00182EC90E08B
:101190009093F3018093F20186EC90E09093F50137
:1011A0008093F40184E08093F60183E08093F7015B
:1011B00087E08093F80185E08093F90181E08093D6
:1011C000FA010895CF92DF92EF92FF920F931F934F
:1011D000CF93DF936C017A01EB01E60EF71E00E07E
:1011E00010E0CE15DF0561F06991D601ED91FC911B
:1011F0000190F081E02DC6010995080F191FF1CF6C
:10120000C801DF91CF911F910F91FF90EF90DF9078
:10121000CF9008956115710581F0DB010D900020DC
:10122000E9F7AD0141505109461B570BDC01ED9127
:10123000FC910280F381E02D099480E090E0089514
:10124000DC01ED91FC910190F081E02D09940F9368
:101250001F93CF93DF93EC016DE00E9420098C0176
:101260006AE0CE010E942009800F911FDF91CF918B
:101270001F910F9108950F931F93CF93DF93EC016C
:101280000E940A098C01CE010E942709800F911F3C
:10129000DF91CF911F910F910895CF93DF9300D0ED
:1012A00000D0CDB7DEB79B01AC016115710581059A
:1012B000910569F069833A834B835C830E942E0A0F
:1012C00029813A814B815C810E94A00903C060E0C2
:1012D00070E0CB010F900F900F900F90DF91CF91A6
:1012E00008950E9422060E943405C7ECD7E00E94B0
:1012F00044052097E1F30E94C707F9CFA1E21A2E17
:10130000AA1BBB1BFD010DC0AA1FBB1FEE1FFF1FA9
:10131000A217B307E407F50720F0A21BB30BE40BF9
:10132000F50B661F771F881F991F1A9469F7609540
:101330007095809590959B01AC01BD01CF010895FA
:10134000052E97FB1EF400940E94B70957FD07D0A5
:101350000E947E0907FC03D04EF40C94B709509507
:101360004095309521953F4F4F4F5F4F0895909591
:101370008095709561957F4F8F4F9F4F08950E9484
:10138000D009A59F900DB49F900DA49F800D911D35
:1013900011240895EE0FFF1F0590F491E02D09949C
:1013A000A29FB001B39FC001A39F700D811D1124A6
:1013B000911DB29F700D811D1124911D08958F9272
:1013C0009F92AF92BF92CF92DF92EF92FF92CF9314
:1013D000DF93EC01688179818A819B8161157105B8
:1013E0008105910521F464E279ED8BE597E02DE12B
:1013F00033EF41E050E00E94A00949015A019B01EE
:10140000AC01A7EAB1E40E94BF096B017C01ACEE1C
:10141000B4EFA50194010E943F0AC60ED71EE81E34
:10142000F91EF7FE06C081E0C81AD108E10880E87D
:10143000F80AC882D982EA82FB82C701B6019F7787
:10144000DF91CF91FF90EF90DF90CF90BF90AF9062
:101450009F908F9008950E94DF09089580E091E0A9
:101460000E94DF0908956093000170930101809349
:101470000201909303010895B7FF0C94BF090E94E5
:0C148000BF09821B930B0895F894FFCF66
:10148C00010000004E3120636F756C646E27742070
:10149C00737461727420212121004E3220636F75A8
:1014AC006C646E2774207374617274202121210086
:1014BC004E3320636F756C646E2774207374617285
:1014CC0074202121210042792043696F314E2C2058
:1014DC0054696B746F6B3A2065782E66642E636E5C
:1014EC0000000000004F07E208F50622070707443A
:0214FC000700E7
:00000001FF
